{
  "_format": "hh-sol-artifact-1",
  "contractName": "PrinceToken",
  "sourceName": "contracts/PrinceToken.sol",
  "abi": [
    {
      "anonymous": false,
      "inputs": [
        {
          "indexed": true,
          "internalType": "address",
          "name": "owner",
          "type": "address"
        },
        {
          "indexed": true,
          "internalType": "address",
          "name": "spender",
          "type": "address"
        },
        {
          "indexed": false,
          "internalType": "uint256",
          "name": "value",
          "type": "uint256"
        }
      ],
      "name": "Approval",
      "type": "event"
    },
    {
      "anonymous": false,
      "inputs": [
        {
          "indexed": true,
          "internalType": "address",
          "name": "delegator",
          "type": "address"
        },
        {
          "indexed": true,
          "internalType": "address",
          "name": "fromDelegate",
          "type": "address"
        },
        {
          "indexed": true,
          "internalType": "address",
          "name": "toDelegate",
          "type": "address"
        }
      ],
      "name": "DelegateChanged",
      "type": "event"
    },
    {
      "anonymous": false,
      "inputs": [
        {
          "indexed": true,
          "internalType": "address",
          "name": "delegate",
          "type": "address"
        },
        {
          "indexed": false,
          "internalType": "uint256",
          "name": "previousBalance",
          "type": "uint256"
        },
        {
          "indexed": false,
          "internalType": "uint256",
          "name": "newBalance",
          "type": "uint256"
        }
      ],
      "name": "DelegateVotesChanged",
      "type": "event"
    },
    {
      "anonymous": false,
      "inputs": [
        {
          "indexed": true,
          "internalType": "address",
          "name": "previousOwner",
          "type": "address"
        },
        {
          "indexed": true,
          "internalType": "address",
          "name": "newOwner",
          "type": "address"
        }
      ],
      "name": "OwnershipTransferred",
      "type": "event"
    },
    {
      "anonymous": false,
      "inputs": [
        {
          "indexed": true,
          "internalType": "address",
          "name": "from",
          "type": "address"
        },
        {
          "indexed": true,
          "internalType": "address",
          "name": "to",
          "type": "address"
        },
        {
          "indexed": false,
          "internalType": "uint256",
          "name": "value",
          "type": "uint256"
        }
      ],
      "name": "Transfer",
      "type": "event"
    },
    {
      "inputs": [],
      "name": "DELEGATION_TYPEHASH",
      "outputs": [
        {
          "internalType": "bytes32",
          "name": "",
          "type": "bytes32"
        }
      ],
      "stateMutability": "view",
      "type": "function"
    },
    {
      "inputs": [],
      "name": "DOMAIN_TYPEHASH",
      "outputs": [
        {
          "internalType": "bytes32",
          "name": "",
          "type": "bytes32"
        }
      ],
      "stateMutability": "view",
      "type": "function"
    },
    {
      "inputs": [
        {
          "internalType": "address",
          "name": "owner",
          "type": "address"
        },
        {
          "internalType": "address",
          "name": "spender",
          "type": "address"
        }
      ],
      "name": "allowance",
      "outputs": [
        {
          "internalType": "uint256",
          "name": "",
          "type": "uint256"
        }
      ],
      "stateMutability": "view",
      "type": "function"
    },
    {
      "inputs": [
        {
          "internalType": "address",
          "name": "spender",
          "type": "address"
        },
        {
          "internalType": "uint256",
          "name": "amount",
          "type": "uint256"
        }
      ],
      "name": "approve",
      "outputs": [
        {
          "internalType": "bool",
          "name": "",
          "type": "bool"
        }
      ],
      "stateMutability": "nonpayable",
      "type": "function"
    },
    {
      "inputs": [
        {
          "internalType": "address",
          "name": "account",
          "type": "address"
        }
      ],
      "name": "balanceOf",
      "outputs": [
        {
          "internalType": "uint256",
          "name": "",
          "type": "uint256"
        }
      ],
      "stateMutability": "view",
      "type": "function"
    },
    {
      "inputs": [
        {
          "internalType": "address",
          "name": "",
          "type": "address"
        },
        {
          "internalType": "uint32",
          "name": "",
          "type": "uint32"
        }
      ],
      "name": "checkpoints",
      "outputs": [
        {
          "internalType": "uint32",
          "name": "fromBlock",
          "type": "uint32"
        },
        {
          "internalType": "uint256",
          "name": "votes",
          "type": "uint256"
        }
      ],
      "stateMutability": "view",
      "type": "function"
    },
    {
      "inputs": [],
      "name": "decimals",
      "outputs": [
        {
          "internalType": "uint8",
          "name": "",
          "type": "uint8"
        }
      ],
      "stateMutability": "view",
      "type": "function"
    },
    {
      "inputs": [
        {
          "internalType": "address",
          "name": "spender",
          "type": "address"
        },
        {
          "internalType": "uint256",
          "name": "subtractedValue",
          "type": "uint256"
        }
      ],
      "name": "decreaseAllowance",
      "outputs": [
        {
          "internalType": "bool",
          "name": "",
          "type": "bool"
        }
      ],
      "stateMutability": "nonpayable",
      "type": "function"
    },
    {
      "inputs": [
        {
          "internalType": "address",
          "name": "delegatee",
          "type": "address"
        }
      ],
      "name": "delegate",
      "outputs": [],
      "stateMutability": "nonpayable",
      "type": "function"
    },
    {
      "inputs": [
        {
          "internalType": "address",
          "name": "delegatee",
          "type": "address"
        },
        {
          "internalType": "uint256",
          "name": "nonce",
          "type": "uint256"
        },
        {
          "internalType": "uint256",
          "name": "expiry",
          "type": "uint256"
        },
        {
          "internalType": "uint8",
          "name": "v",
          "type": "uint8"
        },
        {
          "internalType": "bytes32",
          "name": "r",
          "type": "bytes32"
        },
        {
          "internalType": "bytes32",
          "name": "s",
          "type": "bytes32"
        }
      ],
      "name": "delegateBySig",
      "outputs": [],
      "stateMutability": "nonpayable",
      "type": "function"
    },
    {
      "inputs": [
        {
          "internalType": "address",
          "name": "delegator",
          "type": "address"
        }
      ],
      "name": "delegates",
      "outputs": [
        {
          "internalType": "address",
          "name": "",
          "type": "address"
        }
      ],
      "stateMutability": "view",
      "type": "function"
    },
    {
      "inputs": [
        {
          "internalType": "address",
          "name": "account",
          "type": "address"
        }
      ],
      "name": "getCurrentVotes",
      "outputs": [
        {
          "internalType": "uint256",
          "name": "",
          "type": "uint256"
        }
      ],
      "stateMutability": "view",
      "type": "function"
    },
    {
      "inputs": [],
      "name": "getOwner",
      "outputs": [
        {
          "internalType": "address",
          "name": "",
          "type": "address"
        }
      ],
      "stateMutability": "view",
      "type": "function"
    },
    {
      "inputs": [
        {
          "internalType": "address",
          "name": "account",
          "type": "address"
        },
        {
          "internalType": "uint256",
          "name": "blockNumber",
          "type": "uint256"
        }
      ],
      "name": "getPriorVotes",
      "outputs": [
        {
          "internalType": "uint256",
          "name": "",
          "type": "uint256"
        }
      ],
      "stateMutability": "view",
      "type": "function"
    },
    {
      "inputs": [
        {
          "internalType": "address",
          "name": "spender",
          "type": "address"
        },
        {
          "internalType": "uint256",
          "name": "addedValue",
          "type": "uint256"
        }
      ],
      "name": "increaseAllowance",
      "outputs": [
        {
          "internalType": "bool",
          "name": "",
          "type": "bool"
        }
      ],
      "stateMutability": "nonpayable",
      "type": "function"
    },
    {
      "inputs": [
        {
          "internalType": "address",
          "name": "_to",
          "type": "address"
        },
        {
          "internalType": "uint256",
          "name": "_amount",
          "type": "uint256"
        }
      ],
      "name": "mint",
      "outputs": [],
      "stateMutability": "nonpayable",
      "type": "function"
    },
    {
      "inputs": [
        {
          "internalType": "uint256",
          "name": "amount",
          "type": "uint256"
        }
      ],
      "name": "mint",
      "outputs": [
        {
          "internalType": "bool",
          "name": "",
          "type": "bool"
        }
      ],
      "stateMutability": "nonpayable",
      "type": "function"
    },
    {
      "inputs": [],
      "name": "name",
      "outputs": [
        {
          "internalType": "string",
          "name": "",
          "type": "string"
        }
      ],
      "stateMutability": "view",
      "type": "function"
    },
    {
      "inputs": [
        {
          "internalType": "address",
          "name": "",
          "type": "address"
        }
      ],
      "name": "nonces",
      "outputs": [
        {
          "internalType": "uint256",
          "name": "",
          "type": "uint256"
        }
      ],
      "stateMutability": "view",
      "type": "function"
    },
    {
      "inputs": [
        {
          "internalType": "address",
          "name": "",
          "type": "address"
        }
      ],
      "name": "numCheckpoints",
      "outputs": [
        {
          "internalType": "uint32",
          "name": "",
          "type": "uint32"
        }
      ],
      "stateMutability": "view",
      "type": "function"
    },
    {
      "inputs": [],
      "name": "owner",
      "outputs": [
        {
          "internalType": "address",
          "name": "",
          "type": "address"
        }
      ],
      "stateMutability": "view",
      "type": "function"
    },
    {
      "inputs": [],
      "name": "renounceOwnership",
      "outputs": [],
      "stateMutability": "nonpayable",
      "type": "function"
    },
    {
      "inputs": [],
      "name": "symbol",
      "outputs": [
        {
          "internalType": "string",
          "name": "",
          "type": "string"
        }
      ],
      "stateMutability": "view",
      "type": "function"
    },
    {
      "inputs": [],
      "name": "totalSupply",
      "outputs": [
        {
          "internalType": "uint256",
          "name": "",
          "type": "uint256"
        }
      ],
      "stateMutability": "view",
      "type": "function"
    },
    {
      "inputs": [
        {
          "internalType": "address",
          "name": "recipient",
          "type": "address"
        },
        {
          "internalType": "uint256",
          "name": "amount",
          "type": "uint256"
        }
      ],
      "name": "transfer",
      "outputs": [
        {
          "internalType": "bool",
          "name": "",
          "type": "bool"
        }
      ],
      "stateMutability": "nonpayable",
      "type": "function"
    },
    {
      "inputs": [
        {
          "internalType": "address",
          "name": "sender",
          "type": "address"
        },
        {
          "internalType": "address",
          "name": "recipient",
          "type": "address"
        },
        {
          "internalType": "uint256",
          "name": "amount",
          "type": "uint256"
        }
      ],
      "name": "transferFrom",
      "outputs": [
        {
          "internalType": "bool",
          "name": "",
          "type": "bool"
        }
      ],
      "stateMutability": "nonpayable",
      "type": "function"
    },
    {
      "inputs": [
        {
          "internalType": "address",
          "name": "newOwner",
          "type": "address"
        }
      ],
      "name": "transferOwnership",
      "outputs": [],
      "stateMutability": "nonpayable",
      "type": "function"
    }
  ],
  "bytecode": "0x60806040523480156200001157600080fd5b506040518060400160405280600e81526020016d25b4b733a9bbb0b8102a37b5b2b760911b815250604051806040016040528060068152602001655072696e636560d01b81525060006200006a620000f560201b60201c565b600080546001600160a01b0319166001600160a01b0383169081178255604051929350917f8be0079c531659141344cd1fd0a4f28419497f9722a3daafe3b4186f6b6457e0908290a3508151620000c9906004906020850190620000f9565b508051620000df906005906020840190620000f9565b50506006805460ff191660121790555062000195565b3390565b828054600181600116156101000203166002900490600052602060002090601f016020900481019282601f106200013c57805160ff19168380011785556200016c565b828001600101855582156200016c579182015b828111156200016c5782518255916020019190600101906200014f565b506200017a9291506200017e565b5090565b5b808211156200017a57600081556001016200017f565b61256580620001a56000396000f3fe608060405234801561001057600080fd5b50600436106101b95760003560e01c8063782d6fe1116100f9578063a9059cbb11610097578063dd62ed3e11610071578063dd62ed3e1461062f578063e7a324dc1461066a578063f1127ed814610672578063f2fde38b146106d1576101b9565b8063a9059cbb1461056f578063b4b5ea57146105a8578063c3cda520146105db576101b9565b80638da5cb5b116100d35780638da5cb5b1461050957806395d89b4114610511578063a0712d6814610519578063a457c2d714610536576101b9565b8063782d6fe1146104955780637ecebe00146104ce578063893d20e814610501576101b9565b806339509351116101665780635c19a95c116101405780635c19a95c146103db5780636fcfff451461040e57806370a082311461045a578063715018a61461048d576101b9565b8063395093511461030b57806340c10f1914610344578063587cde1e1461037f576101b9565b806320606b701161019757806320606b70146102a257806323b872dd146102aa578063313ce567146102ed576101b9565b806306fdde03146101be578063095ea7b31461023b57806318160ddd14610288575b600080fd5b6101c6610704565b6040805160208082528351818301528351919283929083019185019080838360005b838110156102005781810151838201526020016101e8565b50505050905090810190601f16801561022d5780820380516001836020036101000a031916815260200191505b509250505060405180910390f35b6102746004803603604081101561025157600080fd5b5073ffffffffffffffffffffffffffffffffffffffff81351690602001356107b8565b604080519115158252519081900360200190f35b610290610817565b60408051918252519081900360200190f35b61029061081d565b610274600480360360608110156102c057600080fd5b5073ffffffffffffffffffffffffffffffffffffffff813581169160208101359091169060400135610841565b6102f56108e2565b6040805160ff9092168252519081900360200190f35b6102746004803603604081101561032157600080fd5b5073ffffffffffffffffffffffffffffffffffffffff81351690602001356108eb565b61037d6004803603604081101561035a57600080fd5b5073ffffffffffffffffffffffffffffffffffffffff8135169060200135610946565b005b6103b26004803603602081101561039557600080fd5b503573ffffffffffffffffffffffffffffffffffffffff16610a2e565b6040805173ffffffffffffffffffffffffffffffffffffffff9092168252519081900360200190f35b61037d600480360360208110156103f157600080fd5b503573ffffffffffffffffffffffffffffffffffffffff16610a59565b6104416004803603602081101561042457600080fd5b503573ffffffffffffffffffffffffffffffffffffffff16610a66565b6040805163ffffffff9092168252519081900360200190f35b6102906004803603602081101561047057600080fd5b503573ffffffffffffffffffffffffffffffffffffffff16610a7e565b61037d610aa6565b610290600480360360408110156104ab57600080fd5b5073ffffffffffffffffffffffffffffffffffffffff8135169060200135610bbd565b610290600480360360208110156104e457600080fd5b503573ffffffffffffffffffffffffffffffffffffffff16610e87565b6103b2610e99565b6103b2610ea8565b6101c6610ec4565b6102746004803603602081101561052f57600080fd5b5035610f43565b6102746004803603604081101561054c57600080fd5b5073ffffffffffffffffffffffffffffffffffffffff8135169060200135611006565b6102746004803603604081101561058557600080fd5b5073ffffffffffffffffffffffffffffffffffffffff813516906020013561107b565b610290600480360360208110156105be57600080fd5b503573ffffffffffffffffffffffffffffffffffffffff1661108f565b61037d600480360360c08110156105f157600080fd5b5073ffffffffffffffffffffffffffffffffffffffff8135169060208101359060408101359060ff6060820135169060808101359060a0013561112b565b6102906004803603604081101561064557600080fd5b5073ffffffffffffffffffffffffffffffffffffffff8135811691602001351661146a565b6102906114a2565b6106b16004803603604081101561068857600080fd5b50803573ffffffffffffffffffffffffffffffffffffffff16906020013563ffffffff166114c6565b6040805163ffffffff909316835260208301919091528051918290030190f35b61037d600480360360208110156106e757600080fd5b503573ffffffffffffffffffffffffffffffffffffffff166114f3565b60048054604080516020601f60027fffffffffffffffffffffffffffffffffffffffffffffffffffffffffffffffff6101006001881615020190951694909404938401819004810282018101909252828152606093909290918301828280156107ae5780601f10610783576101008083540402835291602001916107ae565b820191906000526020600020905b81548152906001019060200180831161079157829003601f168201915b5050505050905090565b60006107fb6040518060400160405280601f81526020017f617070726f76652066726f6d20257320746f20257320257320746f6b656e7300815250338585611694565b61080d6108066117d0565b84846117d4565b5060015b92915050565b60035490565b7f8cad95687ba82c2ce50e74f7b754645e5117c3a5bec8151c0726d5857980a86681565b600061084e84848461193f565b6108d88461085a6117d0565b6108d3856040518060600160405280602881526020016123d56028913973ffffffffffffffffffffffffffffffffffffffff8a166000908152600260205260408120906108a56117d0565b73ffffffffffffffffffffffffffffffffffffffff1681526020810191909152604001600020549190611b06565b6117d4565b5060019392505050565b60065460ff1690565b600061080d6108f86117d0565b846108d385600260006109096117d0565b73ffffffffffffffffffffffffffffffffffffffff908116825260208083019390935260409182016000908120918c168152925290205490611bb7565b61094e6117d0565b73ffffffffffffffffffffffffffffffffffffffff1661096c610ea8565b73ffffffffffffffffffffffffffffffffffffffff16146109ee57604080517f08c379a000000000000000000000000000000000000000000000000000000000815260206004820181905260248201527f4f776e61626c653a2063616c6c6572206973206e6f7420746865206f776e6572604482015290519081900360640190fd5b6109f88282611c2b565b73ffffffffffffffffffffffffffffffffffffffff808316600090815260076020526040812054610a2a921683611d52565b5050565b73ffffffffffffffffffffffffffffffffffffffff9081166000908152600760205260409020541690565b610a633382611f38565b50565b60096020526000908152604090205463ffffffff1681565b73ffffffffffffffffffffffffffffffffffffffff1660009081526001602052604090205490565b610aae6117d0565b73ffffffffffffffffffffffffffffffffffffffff16610acc610ea8565b73ffffffffffffffffffffffffffffffffffffffff1614610b4e57604080517f08c379a000000000000000000000000000000000000000000000000000000000815260206004820181905260248201527f4f776e61626c653a2063616c6c6572206973206e6f7420746865206f776e6572604482015290519081900360640190fd5b6000805460405173ffffffffffffffffffffffffffffffffffffffff909116907f8be0079c531659141344cd1fd0a4f28419497f9722a3daafe3b4186f6b6457e0908390a3600080547fffffffffffffffffffffffff0000000000000000000000000000000000000000169055565b6000438210610c17576040517f08c379a00000000000000000000000000000000000000000000000000000000081526004018080602001828103825260298152602001806123ac6029913960400191505060405180910390fd5b73ffffffffffffffffffffffffffffffffffffffff831660009081526009602052604090205463ffffffff1680610c52576000915050610811565b73ffffffffffffffffffffffffffffffffffffffff8416600090815260086020908152604080832063ffffffff7fffffffffffffffffffffffffffffffffffffffffffffffffffffffffffffffff860181168552925290912054168310610d175773ffffffffffffffffffffffffffffffffffffffff841660009081526008602090815260408083207fffffffffffffffffffffffffffffffffffffffffffffffffffffffffffffffff9490940163ffffffff16835292905220600101549050610811565b73ffffffffffffffffffffffffffffffffffffffff8416600090815260086020908152604080832083805290915290205463ffffffff16831015610d5f576000915050610811565b60007fffffffffffffffffffffffffffffffffffffffffffffffffffffffffffffffff82015b8163ffffffff168163ffffffff161115610e4357600282820363ffffffff16048103610daf6122fd565b5073ffffffffffffffffffffffffffffffffffffffff8716600090815260086020908152604080832063ffffffff808616855290835292819020815180830190925280549093168082526001909301549181019190915290871415610e1e576020015194506108119350505050565b805163ffffffff16871115610e3557819350610e3c565b6001820392505b5050610d85565b5073ffffffffffffffffffffffffffffffffffffffff8516600090815260086020908152604080832063ffffffff9094168352929052206001015491505092915050565b600a6020526000908152604090205481565b6000610ea3610ea8565b905090565b60005473ffffffffffffffffffffffffffffffffffffffff1690565b60058054604080516020601f60027fffffffffffffffffffffffffffffffffffffffffffffffffffffffffffffffff6101006001881615020190951694909404938401819004810282018101909252828152606093909290918301828280156107ae5780601f10610783576101008083540402835291602001916107ae565b6000610f4d6117d0565b73ffffffffffffffffffffffffffffffffffffffff16610f6b610ea8565b73ffffffffffffffffffffffffffffffffffffffff1614610fed57604080517f08c379a000000000000000000000000000000000000000000000000000000000815260206004820181905260248201527f4f776e61626c653a2063616c6c6572206973206e6f7420746865206f776e6572604482015290519081900360640190fd5b610ffe610ff86117d0565b83611c2b565b506001919050565b600061080d6110136117d0565b846108d3856040518060600160405280602581526020016124c5602591396002600061103d6117d0565b73ffffffffffffffffffffffffffffffffffffffff908116825260208083019390935260409182016000908120918d16815292529020549190611b06565b600061080d6110886117d0565b848461193f565b73ffffffffffffffffffffffffffffffffffffffff811660009081526009602052604081205463ffffffff16806110c7576000611124565b73ffffffffffffffffffffffffffffffffffffffff8316600090815260086020908152604080832063ffffffff7fffffffffffffffffffffffffffffffffffffffffffffffffffffffffffffffff86011684529091529020600101545b9392505050565b60007f8cad95687ba82c2ce50e74f7b754645e5117c3a5bec8151c0726d5857980a866611156610704565b80519060200120611165611ff9565b60408051602080820195909552808201939093526060830191909152306080808401919091528151808403909101815260a0830182528051908401207fe48329057bfd03d55e49b547132e39cffd9c1820ad7b9d4c5307691425d15adf60c084015273ffffffffffffffffffffffffffffffffffffffff8b1660e084015261010083018a90526101208084018a905282518085039091018152610140840183528051908501207f19010000000000000000000000000000000000000000000000000000000000006101608501526101628401829052610182808501829052835180860390910181526101a285018085528151918701919091206000918290526101c2860180865281905260ff8b166101e287015261020286018a905261022286018990529351929650909492939092600192610242808401937fffffffffffffffffffffffffffffffffffffffffffffffffffffffffffffffe08301929081900390910190855afa1580156112de573d6000803e3d6000fd5b50506040517fffffffffffffffffffffffffffffffffffffffffffffffffffffffffffffffe0015191505073ffffffffffffffffffffffffffffffffffffffff8116611375576040517f08c379a00000000000000000000000000000000000000000000000000000000081526004018080602001828103825260288152602001806123846028913960400191505060405180910390fd5b73ffffffffffffffffffffffffffffffffffffffff81166000908152600a6020526040902080546001810190915589146113fa576040517f08c379a00000000000000000000000000000000000000000000000000000000081526004018080602001828103825260248152602001806124ea6024913960400191505060405180910390fd5b87421115611453576040517f08c379a00000000000000000000000000000000000000000000000000000000081526004018080602001828103825260288152602001806124546028913960400191505060405180910390fd5b61145d818b611f38565b505050505b505050505050565b73ffffffffffffffffffffffffffffffffffffffff918216600090815260026020908152604080832093909416825291909152205490565b7fe48329057bfd03d55e49b547132e39cffd9c1820ad7b9d4c5307691425d15adf81565b60086020908152600092835260408084209091529082529020805460019091015463ffffffff9091169082565b6114fb6117d0565b73ffffffffffffffffffffffffffffffffffffffff16611519610ea8565b73ffffffffffffffffffffffffffffffffffffffff161461159b57604080517f08c379a000000000000000000000000000000000000000000000000000000000815260206004820181905260248201527f4f776e61626c653a2063616c6c6572206973206e6f7420746865206f776e6572604482015290519081900360640190fd5b73ffffffffffffffffffffffffffffffffffffffff8116611607576040517f08c379a000000000000000000000000000000000000000000000000000000000815260040180806020018281038252602681526020018061235e6026913960400191505060405180910390fd5b6000805460405173ffffffffffffffffffffffffffffffffffffffff808516939216917f8be0079c531659141344cd1fd0a4f28419497f9722a3daafe3b4186f6b6457e091a3600080547fffffffffffffffffffffffff00000000000000000000000000000000000000001673ffffffffffffffffffffffffffffffffffffffff92909216919091179055565b6117ca8484848460405160240180806020018573ffffffffffffffffffffffffffffffffffffffff1681526020018473ffffffffffffffffffffffffffffffffffffffff168152602001838152602001828103825286818151815260200191508051906020019080838360005b83811015611719578181015183820152602001611701565b50505050905090810190601f1680156117465780820380516001836020036101000a031916815260200191505b50604080517fffffffffffffffffffffffffffffffffffffffffffffffffffffffffffffffe08184030181529190526020810180517bffffffffffffffffffffffffffffffffffffffffffffffffffffffff167f8ef3f399000000000000000000000000000000000000000000000000000000001790529550611ffd945050505050565b50505050565b3390565b73ffffffffffffffffffffffffffffffffffffffff8316611840576040517f08c379a000000000000000000000000000000000000000000000000000000000815260040180806020018281038252602481526020018061233a6024913960400191505060405180910390fd5b73ffffffffffffffffffffffffffffffffffffffff82166118ac576040517f08c379a000000000000000000000000000000000000000000000000000000000815260040180806020018281038252602281526020018061250e6022913960400191505060405180910390fd5b6118d060405180606001604052806021815260200161243360219139848484611694565b73ffffffffffffffffffffffffffffffffffffffff808416600081815260026020908152604080832094871680845294825291829020859055815185815291517f8c5be1e5ebec7d5bd14f71427d1e84f3dd0314c0f7b2291e5b200ac8c7c3b9259281900390910190a3505050565b73ffffffffffffffffffffffffffffffffffffffff83166119ab576040517f08c379a00000000000000000000000000000000000000000000000000000000081526004018080602001828103825260258152602001806123156025913960400191505060405180910390fd5b73ffffffffffffffffffffffffffffffffffffffff8216611a17576040517f08c379a00000000000000000000000000000000000000000000000000000000081526004018080602001828103825260238152602001806124a26023913960400191505060405180910390fd5b611a618160405180606001604052806026815260200161247c6026913973ffffffffffffffffffffffffffffffffffffffff86166000908152600160205260409020549190611b06565b73ffffffffffffffffffffffffffffffffffffffff8085166000908152600160205260408082209390935590841681522054611a9d9082611bb7565b73ffffffffffffffffffffffffffffffffffffffff80841660008181526001602090815260409182902094909455805185815290519193928716927fddf252ad1be2c89b69c2b068fc378daa952ba7f163c4a11628f55a4df523b3ef92918290030190a3505050565b60008184841115611baf576040517f08c379a00000000000000000000000000000000000000000000000000000000081526004018080602001828103825283818151815260200191508051906020019080838360005b83811015611b74578181015183820152602001611b5c565b50505050905090810190601f168015611ba15780820380516001836020036101000a031916815260200191505b509250505060405180910390fd5b505050900390565b60008282018381101561112457604080517f08c379a000000000000000000000000000000000000000000000000000000000815260206004820152601b60248201527f536166654d6174683a206164646974696f6e206f766572666c6f770000000000604482015290519081900360640190fd5b73ffffffffffffffffffffffffffffffffffffffff8216611cad57604080517f08c379a000000000000000000000000000000000000000000000000000000000815260206004820152601f60248201527f42455032303a206d696e7420746f20746865207a65726f206164647265737300604482015290519081900360640190fd5b600354611cba9082611bb7565b60035573ffffffffffffffffffffffffffffffffffffffff8216600090815260016020526040902054611ced9082611bb7565b73ffffffffffffffffffffffffffffffffffffffff831660008181526001602090815260408083209490945583518581529351929391927fddf252ad1be2c89b69c2b068fc378daa952ba7f163c4a11628f55a4df523b3ef9281900390910190a35050565b8173ffffffffffffffffffffffffffffffffffffffff168373ffffffffffffffffffffffffffffffffffffffff1614158015611d8e5750600081115b15611f335773ffffffffffffffffffffffffffffffffffffffff831615611e655773ffffffffffffffffffffffffffffffffffffffff831660009081526009602052604081205463ffffffff169081611de8576000611e45565b73ffffffffffffffffffffffffffffffffffffffff8516600090815260086020908152604080832063ffffffff7fffffffffffffffffffffffffffffffffffffffffffffffffffffffffffffffff87011684529091529020600101545b90506000611e53828561201e565b9050611e6186848484612095565b5050505b73ffffffffffffffffffffffffffffffffffffffff821615611f335773ffffffffffffffffffffffffffffffffffffffff821660009081526009602052604081205463ffffffff169081611eba576000611f17565b73ffffffffffffffffffffffffffffffffffffffff8416600090815260086020908152604080832063ffffffff7fffffffffffffffffffffffffffffffffffffffffffffffffffffffffffffffff87011684529091529020600101545b90506000611f258285611bb7565b905061146285848484612095565b505050565b73ffffffffffffffffffffffffffffffffffffffff80831660009081526007602052604081205490911690611f6c84610a7e565b73ffffffffffffffffffffffffffffffffffffffff85811660008181526007602052604080822080547fffffffffffffffffffffffff000000000000000000000000000000000000000016898616908117909155905194955093928616927f3134e8a2e6d97e929a7e54011ea5485d7d196dd5f0ba4d4ef95803e8e3fc257f9190a46117ca828483611d52565b4690565b80516a636f6e736f6c652e6c6f67602083016000808483855afa5050505050565b60008282111561208f57604080517f08c379a000000000000000000000000000000000000000000000000000000000815260206004820152601e60248201527f536166654d6174683a207375627472616374696f6e206f766572666c6f770000604482015290519081900360640190fd5b50900390565b60006120b9436040518060600160405280603681526020016123fd60369139612285565b905060008463ffffffff1611801561212d575073ffffffffffffffffffffffffffffffffffffffff8516600090815260086020908152604080832063ffffffff7fffffffffffffffffffffffffffffffffffffffffffffffffffffffffffffffff8901811685529252909120548282169116145b156121955773ffffffffffffffffffffffffffffffffffffffff8516600090815260086020908152604080832063ffffffff7fffffffffffffffffffffffffffffffffffffffffffffffffffffffffffffffff8901168452909152902060010182905561222e565b60408051808201825263ffffffff8084168252602080830186815273ffffffffffffffffffffffffffffffffffffffff8a166000818152600884528681208b861682528452868120955186549086167fffffffffffffffffffffffffffffffffffffffffffffffffffffffff00000000918216178755925160019687015590815260099092529390208054928801909116919092161790555b6040805184815260208101849052815173ffffffffffffffffffffffffffffffffffffffff8816927fdec2bacdd2f05b59de34da9b523dff8be42e5e38e818c82fdb0bae774387a724928290030190a25050505050565b60008164010000000084106122f5576040517f08c379a0000000000000000000000000000000000000000000000000000000008152602060048201818152835160248401528351909283926044909101919085019080838360008315611b74578181015183820152602001611b5c565b509192915050565b60408051808201909152600080825260208201529056fe42455032303a207472616e736665722066726f6d20746865207a65726f206164647265737342455032303a20617070726f76652066726f6d20746865207a65726f20616464726573734f776e61626c653a206e6577206f776e657220697320746865207a65726f20616464726573735052494e43453a3a64656c656761746542795369673a20696e76616c6964207369676e61747572655052494e43453a3a6765745072696f72566f7465733a206e6f74207965742064657465726d696e656442455032303a207472616e7366657220616d6f756e74206578636565647320616c6c6f77616e63655052494e43453a3a5f7772697465436865636b706f696e743a20626c6f636b206e756d626572206578636565647320333220626974735f617070726f7665206f776e657220257320746f20257320257320746f6b656e735052494e43453a3a64656c656761746542795369673a207369676e6174757265206578706972656442455032303a207472616e7366657220616d6f756e7420657863656564732062616c616e636542455032303a207472616e7366657220746f20746865207a65726f206164647265737342455032303a2064656372656173656420616c6c6f77616e63652062656c6f77207a65726f5052494e43453a3a64656c656761746542795369673a20696e76616c6964206e6f6e636542455032303a20617070726f766520746f20746865207a65726f2061646472657373a26469706673582212205fc3aa21b56e89aa43b0d013890e056ef569e0fa019c406927b42c8037e7d14964736f6c634300060c0033",
  "linkReferences": {},
  "deployedLinkReferences": {}
}